{
  "_format": "hh-sol-artifact-1",
  "contractName": "Airdrop",
  "sourceName": "contracts/Airdrop.sol",
  "abi": [
    {
      "anonymous": false,
      "inputs": [
        {
          "indexed": true,
          "internalType": "address",
          "name": "previousOwner",
          "type": "address"
        },
        {
          "indexed": true,
          "internalType": "address",
          "name": "newOwner",
          "type": "address"
        }
      ],
      "name": "OwnershipTransferred",
      "type": "event"
    },
    {
      "inputs": [],
      "name": "amount",
      "outputs": [
        {
          "internalType": "uint256",
          "name": "",
          "type": "uint256"
        }
      ],
      "stateMutability": "view",
      "type": "function"
    },
    {
      "inputs": [
        {
          "internalType": "address",
          "name": "signer_",
          "type": "address"
        }
      ],
      "name": "changeSigner",
      "outputs": [],
      "stateMutability": "nonpayable",
      "type": "function"
    },
    {
      "inputs": [
        {
          "internalType": "bytes",
          "name": "signature",
          "type": "bytes"
        }
      ],
      "name": "claim",
      "outputs": [],
      "stateMutability": "nonpayable",
      "type": "function"
    },
    {
      "inputs": [
        {
          "internalType": "address",
          "name": "",
          "type": "address"
        }
      ],
      "name": "claimed",
      "outputs": [
        {
          "internalType": "bool",
          "name": "",
          "type": "bool"
        }
      ],
      "stateMutability": "view",
      "type": "function"
    },
    {
      "inputs": [
        {
          "internalType": "address",
          "name": "signer_",
          "type": "address"
        },
        {
          "internalType": "address",
          "name": "nameAddress_",
          "type": "address"
        },
        {
          "internalType": "uint256",
          "name": "amount_",
          "type": "uint256"
        }
      ],
      "name": "initialize",
      "outputs": [],
      "stateMutability": "nonpayable",
      "type": "function"
    },
    {
      "inputs": [],
      "name": "nameToken",
      "outputs": [
        {
          "internalType": "contract IERC20Upgradeable",
          "name": "",
          "type": "address"
        }
      ],
      "stateMutability": "view",
      "type": "function"
    },
    {
      "inputs": [],
      "name": "owner",
      "outputs": [
        {
          "internalType": "address",
          "name": "",
          "type": "address"
        }
      ],
      "stateMutability": "view",
      "type": "function"
    },
    {
      "inputs": [],
      "name": "renounceOwnership",
      "outputs": [],
      "stateMutability": "nonpayable",
      "type": "function"
    },
    {
      "inputs": [],
      "name": "signer",
      "outputs": [
        {
          "internalType": "address",
          "name": "",
          "type": "address"
        }
      ],
      "stateMutability": "view",
      "type": "function"
    },
    {
      "inputs": [
        {
          "internalType": "address",
          "name": "newOwner",
          "type": "address"
        }
      ],
      "name": "transferOwnership",
      "outputs": [],
      "stateMutability": "nonpayable",
      "type": "function"
    }
  ],
  "bytecode": "0x608060405234801561001057600080fd5b50610cd1806100206000396000f3fe608060405234801561001057600080fd5b506004361061009e5760003560e01c8063aa8c217c11610066578063aa8c217c146100ee578063aad2b72314610103578063c63ff8dd14610116578063c884ef8314610129578063f2fde38b146101495761009e565b80631794bb3c146100a3578063238ac933146100b85780636e311784146100d6578063715018a6146100de5780638da5cb5b146100e6575b600080fd5b6100b66100b1366004610914565b61015c565b005b6100c0610228565b6040516100cd9190610a35565b60405180910390f35b6100c0610237565b6100b6610246565b6100c06102cf565b6100f66102de565b6040516100cd9190610c92565b6100b66101113660046108f3565b6102e4565b6100b661012436600461096f565b610345565b61013c6101373660046108f3565b61048b565b6040516100cd9190610a62565b6100b66101573660046108f3565b6104a0565b600054610100900460ff16806101755750610175610561565b80610183575060005460ff16155b6101a85760405162461bcd60e51b815260040161019f90610bac565b60405180910390fd5b600054610100900460ff161580156101d3576000805460ff1961ff0019909116610100171660011790555b6101db610572565b606780546001600160a01b038087166001600160a01b031992831617909255606580549286169290911691909117905560668290558015610222576000805461ff00191690555b50505050565b6067546001600160a01b031681565b6065546001600160a01b031681565b61024e610605565b6001600160a01b031661025f6102cf565b6001600160a01b0316146102855760405162461bcd60e51b815260040161019f90610c5d565b6033546040516000916001600160a01b0316907f8be0079c531659141344cd1fd0a4f28419497f9722a3daafe3b4186f6b6457e0908390a3603380546001600160a01b0319169055565b6033546001600160a01b031690565b60665481565b6102ec610605565b6001600160a01b03166102fd6102cf565b6001600160a01b0316146103235760405162461bcd60e51b815260040161019f90610c5d565b606780546001600160a01b0319166001600160a01b0392909216919091179055565b3360009081526068602052604090205460ff16156103755760405162461bcd60e51b815260040161019f90610c3c565b806000336040516020016103899190610a35565b60405160208183030381529060405280519060200120905060006103ac82610609565b90506103b8818461063a565b6067546001600160a01b039081169116146103e55760405162461bcd60e51b815260040161019f90610af9565b3360008181526068602052604090819020805460ff19166001179055606554606654915163a9059cbb60e01b81526001600160a01b03919091169263a9059cbb9261043292600401610a49565b602060405180830381600087803b15801561044c57600080fd5b505af1158015610460573d6000803e3d6000fd5b505050506040513d601f19601f82011682018060405250810190610484919061094f565b5050505050565b60686020526000908152604090205460ff1681565b6104a8610605565b6001600160a01b03166104b96102cf565b6001600160a01b0316146104df5760405162461bcd60e51b815260040161019f90610c5d565b6001600160a01b0381166105055760405162461bcd60e51b815260040161019f90610b24565b6033546040516001600160a01b038084169216907f8be0079c531659141344cd1fd0a4f28419497f9722a3daafe3b4186f6b6457e090600090a3603380546001600160a01b0319166001600160a01b0392909216919091179055565b600061056c30610685565b15905090565b600054610100900460ff168061058b575061058b610561565b80610599575060005460ff16155b6105b55760405162461bcd60e51b815260040161019f90610bac565b600054610100900460ff161580156105e0576000805460ff1961ff0019909116610100171660011790555b6105e861068b565b6105f061070c565b8015610602576000805461ff00191690555b50565b3390565b60008160405160200161061c9190610a04565b6040516020818303038152906040528051906020012090505b919050565b6000815160411461065d5760405162461bcd60e51b815260040161019f90610ac2565b60208201516040830151606084015160001a61067b868285856107e6565b9695505050505050565b3b151590565b600054610100900460ff16806106a457506106a4610561565b806106b2575060005460ff16155b6106ce5760405162461bcd60e51b815260040161019f90610bac565b600054610100900460ff161580156105f0576000805460ff1961ff0019909116610100171660011790558015610602576000805461ff001916905550565b600054610100900460ff16806107255750610725610561565b80610733575060005460ff16155b61074f5760405162461bcd60e51b815260040161019f90610bac565b600054610100900460ff1615801561077a576000805460ff1961ff0019909116610100171660011790555b6000610784610605565b603380546001600160a01b0319166001600160a01b038316908117909155604051919250906000907f8be0079c531659141344cd1fd0a4f28419497f9722a3daafe3b4186f6b6457e0908290a3508015610602576000805461ff001916905550565b60007f7fffffffffffffffffffffffffffffff5d576e7357a4501ddfe92f46681b20a08211156108285760405162461bcd60e51b815260040161019f90610b6a565b8360ff16601b148061083d57508360ff16601c145b6108595760405162461bcd60e51b815260040161019f90610bfa565b60006001868686866040516000815260200160405260405161087e9493929190610a6d565b6020604051602081039080840390855afa1580156108a0573d6000803e3d6000fd5b5050604051601f1901519150506001600160a01b0381166108d35760405162461bcd60e51b815260040161019f90610a8b565b95945050505050565b80356001600160a01b038116811461063557600080fd5b600060208284031215610904578081fd5b61090d826108dc565b9392505050565b600080600060608486031215610928578182fd5b610931846108dc565b925061093f602085016108dc565b9150604084013590509250925092565b600060208284031215610960578081fd5b8151801515811461090d578182fd5b60006020808385031215610981578182fd5b823567ffffffffffffffff80821115610998578384fd5b818501915085601f8301126109ab578384fd5b8135818111156109b757fe5b604051601f8201601f19168101850183811182821017156109d457fe5b60405281815283820185018810156109ea578586fd5b818585018683013790810190930193909352509392505050565b7f19457468657265756d205369676e6564204d6573736167653a0a3332000000008152601c810191909152603c0190565b6001600160a01b0391909116815260200190565b6001600160a01b03929092168252602082015260400190565b901515815260200190565b93845260ff9290921660208401526040830152606082015260800190565b60208082526018908201527f45434453413a20696e76616c6964207369676e61747572650000000000000000604082015260600190565b6020808252601f908201527f45434453413a20696e76616c6964207369676e6174757265206c656e67746800604082015260600190565b602080825260119082015270494e56414c4944205349474e415455524560781b604082015260600190565b60208082526026908201527f4f776e61626c653a206e6577206f776e657220697320746865207a65726f206160408201526564647265737360d01b606082015260800190565b60208082526022908201527f45434453413a20696e76616c6964207369676e6174757265202773272076616c604082015261756560f01b606082015260800190565b6020808252602e908201527f496e697469616c697a61626c653a20636f6e747261637420697320616c72656160408201526d191e481a5b9a5d1a585b1a5e995960921b606082015260800190565b60208082526022908201527f45434453413a20696e76616c6964207369676e6174757265202776272076616c604082015261756560f01b606082015260800190565b60208082526007908201526610d3105253515160ca1b604082015260600190565b6020808252818101527f4f776e61626c653a2063616c6c6572206973206e6f7420746865206f776e6572604082015260600190565b9081526020019056fea264697066735822122067b80b162f245e61a3b247d6610152d0fa9b0f04f59e048c48fab6be28192dab64736f6c63430007030033",
  "linkReferences": {},
  "deployedLinkReferences": {}
}