{
  "_format": "hh-sol-artifact-1",
  "contractName": "StakingPool",
  "sourceName": "contracts/Mining.sol",
  "abi": [
    {
      "anonymous": false,
      "inputs": [
        {
          "indexed": true,
          "internalType": "address",
          "name": "previousGovernor",
          "type": "address"
        },
        {
          "indexed": true,
          "internalType": "address",
          "name": "newGovernor",
          "type": "address"
        }
      ],
      "name": "GovernorshipTransferred",
      "type": "event"
    },
    {
      "anonymous": false,
      "inputs": [
        {
          "indexed": false,
          "internalType": "uint256",
          "name": "reward",
          "type": "uint256"
        }
      ],
      "name": "RewardAdded",
      "type": "event"
    },
    {
      "anonymous": false,
      "inputs": [
        {
          "indexed": true,
          "internalType": "address",
          "name": "user",
          "type": "address"
        },
        {
          "indexed": false,
          "internalType": "uint256",
          "name": "reward",
          "type": "uint256"
        }
      ],
      "name": "RewardPaid",
      "type": "event"
    },
    {
      "anonymous": false,
      "inputs": [
        {
          "indexed": true,
          "internalType": "address",
          "name": "user",
          "type": "address"
        },
        {
          "indexed": false,
          "internalType": "uint256",
          "name": "reward2",
          "type": "uint256"
        }
      ],
      "name": "RewardPaid2",
      "type": "event"
    },
    {
      "anonymous": false,
      "inputs": [
        {
          "indexed": true,
          "internalType": "address",
          "name": "user",
          "type": "address"
        },
        {
          "indexed": false,
          "internalType": "uint256",
          "name": "amount",
          "type": "uint256"
        }
      ],
      "name": "Staked",
      "type": "event"
    },
    {
      "anonymous": false,
      "inputs": [
        {
          "indexed": true,
          "internalType": "address",
          "name": "user",
          "type": "address"
        },
        {
          "indexed": false,
          "internalType": "uint256",
          "name": "amount",
          "type": "uint256"
        }
      ],
      "name": "Withdrawn",
      "type": "event"
    },
    {
      "inputs": [],
      "name": "APY",
      "outputs": [
        {
          "internalType": "uint256",
          "name": "",
          "type": "uint256"
        }
      ],
      "stateMutability": "view",
      "type": "function"
    },
    {
      "inputs": [],
      "name": "TVL",
      "outputs": [
        {
          "internalType": "uint256",
          "name": "tvl",
          "type": "uint256"
        }
      ],
      "stateMutability": "view",
      "type": "function"
    },
    {
      "inputs": [
        {
          "internalType": "address",
          "name": "account",
          "type": "address"
        }
      ],
      "name": "balanceOf",
      "outputs": [
        {
          "internalType": "uint256",
          "name": "",
          "type": "uint256"
        }
      ],
      "stateMutability": "view",
      "type": "function"
    },
    {
      "inputs": [],
      "name": "begin",
      "outputs": [
        {
          "internalType": "uint256",
          "name": "",
          "type": "uint256"
        }
      ],
      "stateMutability": "view",
      "type": "function"
    },
    {
      "inputs": [
        {
          "internalType": "address",
          "name": "account",
          "type": "address"
        }
      ],
      "name": "earned",
      "outputs": [
        {
          "internalType": "uint256",
          "name": "",
          "type": "uint256"
        }
      ],
      "stateMutability": "view",
      "type": "function"
    },
    {
      "inputs": [],
      "name": "exit",
      "outputs": [],
      "stateMutability": "nonpayable",
      "type": "function"
    },
    {
      "inputs": [
        {
          "internalType": "bytes32",
          "name": "key",
          "type": "bytes32"
        },
        {
          "internalType": "address",
          "name": "addr",
          "type": "address"
        }
      ],
      "name": "getConfig",
      "outputs": [
        {
          "internalType": "uint256",
          "name": "",
          "type": "uint256"
        }
      ],
      "stateMutability": "view",
      "type": "function"
    },
    {
      "inputs": [
        {
          "internalType": "bytes32",
          "name": "key",
          "type": "bytes32"
        }
      ],
      "name": "getConfig",
      "outputs": [
        {
          "internalType": "uint256",
          "name": "",
          "type": "uint256"
        }
      ],
      "stateMutability": "view",
      "type": "function"
    },
    {
      "inputs": [
        {
          "internalType": "bytes32",
          "name": "key",
          "type": "bytes32"
        },
        {
          "internalType": "uint256",
          "name": "index",
          "type": "uint256"
        }
      ],
      "name": "getConfig",
      "outputs": [
        {
          "internalType": "uint256",
          "name": "",
          "type": "uint256"
        }
      ],
      "stateMutability": "view",
      "type": "function"
    },
    {
      "inputs": [],
      "name": "getReward",
      "outputs": [],
      "stateMutability": "nonpayable",
      "type": "function"
    },
    {
      "inputs": [
        {
          "internalType": "address payable",
          "name": "acct",
          "type": "address"
        }
      ],
      "name": "getReward",
      "outputs": [],
      "stateMutability": "nonpayable",
      "type": "function"
    },
    {
      "inputs": [],
      "name": "getRewardForDuration",
      "outputs": [
        {
          "internalType": "uint256",
          "name": "",
          "type": "uint256"
        }
      ],
      "stateMutability": "view",
      "type": "function"
    },
    {
      "inputs": [],
      "name": "governor",
      "outputs": [
        {
          "internalType": "address",
          "name": "",
          "type": "address"
        }
      ],
      "stateMutability": "view",
      "type": "function"
    },
    {
      "inputs": [
        {
          "internalType": "address",
          "name": "_governor",
          "type": "address"
        },
        {
          "internalType": "address",
          "name": "_rewardsDistribution",
          "type": "address"
        },
        {
          "internalType": "address",
          "name": "_rewardsToken",
          "type": "address"
        },
        {
          "internalType": "address",
          "name": "_stakingToken",
          "type": "address"
        },
        {
          "internalType": "address",
          "name": "_ecoAddr",
          "type": "address"
        }
      ],
      "name": "initialize",
      "outputs": [],
      "stateMutability": "nonpayable",
      "type": "function"
    },
    {
      "inputs": [
        {
          "internalType": "address",
          "name": "_rewardsDistribution",
          "type": "address"
        },
        {
          "internalType": "address",
          "name": "_rewardsToken",
          "type": "address"
        },
        {
          "internalType": "address",
          "name": "_stakingToken",
          "type": "address"
        }
      ],
      "name": "initialize",
      "outputs": [],
      "stateMutability": "nonpayable",
      "type": "function"
    },
    {
      "inputs": [
        {
          "internalType": "address",
          "name": "governor_",
          "type": "address"
        }
      ],
      "name": "initialize",
      "outputs": [],
      "stateMutability": "nonpayable",
      "type": "function"
    },
    {
      "inputs": [],
      "name": "lastTimeRewardApplicable",
      "outputs": [
        {
          "internalType": "uint256",
          "name": "",
          "type": "uint256"
        }
      ],
      "stateMutability": "view",
      "type": "function"
    },
    {
      "inputs": [],
      "name": "lastUpdateTime",
      "outputs": [
        {
          "internalType": "uint256",
          "name": "",
          "type": "uint256"
        }
      ],
      "stateMutability": "view",
      "type": "function"
    },
    {
      "inputs": [],
      "name": "lep",
      "outputs": [
        {
          "internalType": "uint256",
          "name": "",
          "type": "uint256"
        }
      ],
      "stateMutability": "view",
      "type": "function"
    },
    {
      "inputs": [
        {
          "internalType": "uint256",
          "name": "vol",
          "type": "uint256"
        }
      ],
      "name": "lptValue",
      "outputs": [
        {
          "internalType": "uint256",
          "name": "",
          "type": "uint256"
        }
      ],
      "stateMutability": "view",
      "type": "function"
    },
    {
      "inputs": [],
      "name": "lptValueTotal",
      "outputs": [
        {
          "internalType": "uint256",
          "name": "",
          "type": "uint256"
        }
      ],
      "stateMutability": "view",
      "type": "function"
    },
    {
      "inputs": [
        {
          "internalType": "address",
          "name": "_rewards2Token",
          "type": "address"
        },
        {
          "internalType": "uint256",
          "name": "_ratio",
          "type": "uint256"
        },
        {
          "internalType": "uint256",
          "name": "_begin",
          "type": "uint256"
        }
      ],
      "name": "notifyReward2",
      "outputs": [],
      "stateMutability": "nonpayable",
      "type": "function"
    },
    {
      "inputs": [
        {
          "internalType": "uint256",
          "name": "reward",
          "type": "uint256"
        }
      ],
      "name": "notifyRewardAmount",
      "outputs": [],
      "stateMutability": "nonpayable",
      "type": "function"
    },
    {
      "inputs": [
        {
          "internalType": "uint256",
          "name": "_lep",
          "type": "uint256"
        },
        {
          "internalType": "uint256",
          "name": "_period",
          "type": "uint256"
        },
        {
          "internalType": "uint256",
          "name": "_span",
          "type": "uint256"
        },
        {
          "internalType": "uint256",
          "name": "_begin",
          "type": "uint256"
        }
      ],
      "name": "notifyRewardBegin",
      "outputs": [],
      "stateMutability": "nonpayable",
      "type": "function"
    },
    {
      "inputs": [
        {
          "internalType": "address",
          "name": "",
          "type": "address"
        }
      ],
      "name": "paid",
      "outputs": [
        {
          "internalType": "uint256",
          "name": "",
          "type": "uint256"
        }
      ],
      "stateMutability": "view",
      "type": "function"
    },
    {
      "inputs": [],
      "name": "period",
      "outputs": [
        {
          "internalType": "uint256",
          "name": "",
          "type": "uint256"
        }
      ],
      "stateMutability": "view",
      "type": "function"
    },
    {
      "inputs": [],
      "name": "periodFinish",
      "outputs": [
        {
          "internalType": "uint256",
          "name": "",
          "type": "uint256"
        }
      ],
      "stateMutability": "view",
      "type": "function"
    },
    {
      "inputs": [],
      "name": "renounceGovernorship",
      "outputs": [],
      "stateMutability": "nonpayable",
      "type": "function"
    },
    {
      "inputs": [],
      "name": "rewardDelta",
      "outputs": [
        {
          "internalType": "uint256",
          "name": "amt",
          "type": "uint256"
        }
      ],
      "stateMutability": "view",
      "type": "function"
    },
    {
      "inputs": [],
      "name": "rewardPerToken",
      "outputs": [
        {
          "internalType": "uint256",
          "name": "",
          "type": "uint256"
        }
      ],
      "stateMutability": "view",
      "type": "function"
    },
    {
      "inputs": [],
      "name": "rewardPerTokenStored",
      "outputs": [
        {
          "internalType": "uint256",
          "name": "",
          "type": "uint256"
        }
      ],
      "stateMutability": "view",
      "type": "function"
    },
    {
      "inputs": [],
      "name": "rewardRate",
      "outputs": [
        {
          "internalType": "uint256",
          "name": "",
          "type": "uint256"
        }
      ],
      "stateMutability": "view",
      "type": "function"
    },
    {
      "inputs": [
        {
          "internalType": "address",
          "name": "",
          "type": "address"
        }
      ],
      "name": "rewards",
      "outputs": [
        {
          "internalType": "uint256",
          "name": "",
          "type": "uint256"
        }
      ],
      "stateMutability": "view",
      "type": "function"
    },
    {
      "inputs": [],
      "name": "rewards2Ratio",
      "outputs": [
        {
          "internalType": "uint256",
          "name": "",
          "type": "uint256"
        }
      ],
      "stateMutability": "view",
      "type": "function"
    },
    {
      "inputs": [],
      "name": "rewards2Token",
      "outputs": [
        {
          "internalType": "address",
          "name": "",
          "type": "address"
        }
      ],
      "stateMutability": "view",
      "type": "function"
    },
    {
      "inputs": [],
      "name": "rewardsDistribution",
      "outputs": [
        {
          "internalType": "address",
          "name": "",
          "type": "address"
        }
      ],
      "stateMutability": "view",
      "type": "function"
    },
    {
      "inputs": [],
      "name": "rewardsDuration",
      "outputs": [
        {
          "internalType": "uint256",
          "name": "",
          "type": "uint256"
        }
      ],
      "stateMutability": "view",
      "type": "function"
    },
    {
      "inputs": [],
      "name": "rewardsToken",
      "outputs": [
        {
          "internalType": "contract IERC20",
          "name": "",
          "type": "address"
        }
      ],
      "stateMutability": "view",
      "type": "function"
    },
    {
      "inputs": [
        {
          "internalType": "bytes32",
          "name": "key",
          "type": "bytes32"
        },
        {
          "internalType": "uint256",
          "name": "value",
          "type": "uint256"
        }
      ],
      "name": "setConfig",
      "outputs": [],
      "stateMutability": "nonpayable",
      "type": "function"
    },
    {
      "inputs": [
        {
          "internalType": "bytes32",
          "name": "key",
          "type": "bytes32"
        },
        {
          "internalType": "address",
          "name": "addr",
          "type": "address"
        },
        {
          "internalType": "uint256",
          "name": "value",
          "type": "uint256"
        }
      ],
      "name": "setConfig",
      "outputs": [],
      "stateMutability": "nonpayable",
      "type": "function"
    },
    {
      "inputs": [
        {
          "internalType": "bytes32",
          "name": "key",
          "type": "bytes32"
        },
        {
          "internalType": "uint256",
          "name": "index",
          "type": "uint256"
        },
        {
          "internalType": "uint256",
          "name": "value",
          "type": "uint256"
        }
      ],
      "name": "setConfig",
      "outputs": [],
      "stateMutability": "nonpayable",
      "type": "function"
    },
    {
      "inputs": [
        {
          "internalType": "address",
          "name": "swapFactory_",
          "type": "address"
        },
        {
          "internalType": "address[]",
          "name": "pathTVL_",
          "type": "address[]"
        },
        {
          "internalType": "address[]",
          "name": "pathAPY_",
          "type": "address[]"
        }
      ],
      "name": "setPath",
      "outputs": [],
      "stateMutability": "nonpayable",
      "type": "function"
    },
    {
      "inputs": [
        {
          "internalType": "uint256",
          "name": "amount",
          "type": "uint256"
        }
      ],
      "name": "stake",
      "outputs": [],
      "stateMutability": "nonpayable",
      "type": "function"
    },
    {
      "inputs": [
        {
          "internalType": "uint256",
          "name": "amount",
          "type": "uint256"
        },
        {
          "internalType": "uint256",
          "name": "deadline",
          "type": "uint256"
        },
        {
          "internalType": "uint8",
          "name": "v",
          "type": "uint8"
        },
        {
          "internalType": "bytes32",
          "name": "r",
          "type": "bytes32"
        },
        {
          "internalType": "bytes32",
          "name": "s",
          "type": "bytes32"
        }
      ],
      "name": "stakeWithPermit",
      "outputs": [],
      "stateMutability": "nonpayable",
      "type": "function"
    },
    {
      "inputs": [],
      "name": "stakingToken",
      "outputs": [
        {
          "internalType": "contract IERC20",
          "name": "",
          "type": "address"
        }
      ],
      "stateMutability": "view",
      "type": "function"
    },
    {
      "inputs": [
        {
          "internalType": "uint256",
          "name": "vol",
          "type": "uint256"
        },
        {
          "internalType": "address[]",
          "name": "path",
          "type": "address[]"
        }
      ],
      "name": "swapValue",
      "outputs": [
        {
          "internalType": "uint256",
          "name": "v",
          "type": "uint256"
        }
      ],
      "stateMutability": "view",
      "type": "function"
    },
    {
      "inputs": [],
      "name": "totalSupply",
      "outputs": [
        {
          "internalType": "uint256",
          "name": "",
          "type": "uint256"
        }
      ],
      "stateMutability": "view",
      "type": "function"
    },
    {
      "inputs": [
        {
          "internalType": "address",
          "name": "newGovernor",
          "type": "address"
        }
      ],
      "name": "transferGovernorship",
      "outputs": [],
      "stateMutability": "nonpayable",
      "type": "function"
    },
    {
      "inputs": [
        {
          "internalType": "address",
          "name": "",
          "type": "address"
        }
      ],
      "name": "userRewardPerTokenPaid",
      "outputs": [
        {
          "internalType": "uint256",
          "name": "",
          "type": "uint256"
        }
      ],
      "stateMutability": "view",
      "type": "function"
    },
    {
      "inputs": [
        {
          "internalType": "uint256",
          "name": "amount",
          "type": "uint256"
        }
      ],
      "name": "withdraw",
      "outputs": [],
      "stateMutability": "nonpayable",
      "type": "function"
    }
  ],
  "bytecode": "0x608060405234801561001057600080fd5b506138ea806100206000396000f3fe608060405234801561001057600080fd5b50600436106102d55760003560e01c80638b87634711610182578063c8f33c91116100e9578063ebe2b12b116100a2578063ef78d4fd1161007c578063ef78d4fd14610913578063ef8bd3051461091b578063fac3e9f014610923578063ff00b0d41461092b576102d5565b8063ebe2b12b146108cb578063ecd9ba82146108d3578063edaf2d2e1461090b576102d5565b8063c8f33c911461087a578063cd3daf9d14610882578063d1af0c7d1461088a578063ddf2be3f14610892578063df136d65146108bb578063e9fad8ee146108c3576102d5565b8063b21544f31161013b578063b21544f31461076c578063b6aa515b1461079e578063c00007b0146107c4578063c0c53b8b146107ea578063c1c68b4914610822578063c4d66de814610854576102d5565b80638b8763471461062e5780638ec872e314610654578063961d917a14610677578063981d2d571461067f578063a340cf7914610729578063a694fc3a1461074f576102d5565b8063386a95251161024157806352665f47116101fa57806372f702f3116101d457806372f702f31461060e5780637b0a47ee1461061657806380faa57d1461061e57806381c0c26314610626576102d5565b806352665f471461059f5780636dd5b69d146105cb57806370a08231146105e8576102d5565b8063386a9525146105455780633c6b16ab1461054d5780633d18b9121461056a5780633fc6df6e1461057257806344bc253a1461057a5780634d88fb7f14610582576102d5565b80631bce6ff3116102935780631bce6ff3146103d15780631c1f78eb146103d9578063243b8c06146103e15780632ae296da146105185780632e1a7d4d1461052057806330a548ec1461053d576102d5565b80628cc262146102da5780630700037d146103125780630c340a24146103385780631459457a1461035c57806315fe96dc146103a657806318160ddd146103c9575b600080fd5b610300600480360360208110156102f057600080fd5b50356001600160a01b031661095a565b60408051918252519081900360200190f35b6103006004803603602081101561032857600080fd5b50356001600160a01b03166109d8565b6103406109ea565b604080516001600160a01b039092168252519081900360200190f35b6103a4600480360360a081101561037257600080fd5b506001600160a01b038135811691602081013582169160408201358116916060810135821691608090910135166109f9565b005b6103a4600480360360408110156103bc57600080fd5b5080359060200135610b12565b610300610b37565b610300610b3e565b610300610b44565b6103a4600480360360608110156103f757600080fd5b6001600160a01b03823516919081019060408101602082013564010000000081111561042257600080fd5b82018360208201111561043457600080fd5b8035906020019184602083028401116401000000008311171561045657600080fd5b91908080602002602001604051908101604052809392919081815260200183836020028082843760009201919091525092959493602081019350359150506401000000008111156104a657600080fd5b8201836020820111156104b857600080fd5b803590602001918460208302840111640100000000831117156104da57600080fd5b919080806020026020016040519081016040528093929190818152602001838360200280828437600092019190915250929550610beb945050505050565b610340610e61565b6103a46004803603602081101561053657600080fd5b5035610e8d565b610300611110565b6103006111f7565b6103a46004803603602081101561056357600080fd5b50356111fd565b6103a4611526565b610340611531565b610300611540565b6103006004803603602081101561059857600080fd5b50356116e5565b610300600480360360408110156105b557600080fd5b50803590602001356001600160a01b0316611776565b610300600480360360208110156105e157600080fd5b5035611792565b610300600480360360208110156105fe57600080fd5b50356001600160a01b03166117a4565b6103406117bf565b6103006117ce565b6103006117d4565b6103a46117e2565b6103006004803603602081101561064457600080fd5b50356001600160a01b0316611843565b6103006004803603604081101561066a57600080fd5b5080359060200135611855565b610300611868565b6103006004803603604081101561069557600080fd5b813591908101906040810160208201356401000000008111156106b757600080fd5b8201836020820111156106c957600080fd5b803590602001918460208302840111640100000000831117156106eb57600080fd5b91908080602002602001604051908101604052809392919081815260200183836020028082843760009201919091525092955061186e945050505050565b6103006004803603602081101561073f57600080fd5b50356001600160a01b0316611a4e565b6103a46004803603602081101561076557600080fd5b5035611a60565b6103a46004803603606081101561078257600080fd5b508035906001600160a01b036020820135169060400135611ce1565b6103a4600480360360208110156107b457600080fd5b50356001600160a01b0316611d12565b6103a4600480360360208110156107da57600080fd5b50356001600160a01b0316611d35565b6103a46004803603606081101561080057600080fd5b506001600160a01b038135811691602081013582169160409091013516612397565b6103a46004803603606081101561083857600080fd5b506001600160a01b03813516906020810135906040013561249f565b6103a46004803603602081101561086a57600080fd5b50356001600160a01b031661267b565b610300612783565b610300612789565b6103406127c5565b6103a4600480360360608110156108a857600080fd5b50803590602081013590604001356127d4565b6103006127f7565b6103a46127fd565b61030061281e565b6103a4600480360360a08110156108e957600080fd5b5080359060208101359060ff6040820135169060608101359060800135612824565b610300612b34565b610300612be9565b610300612bef565b610300612df7565b6103a46004803603608081101561094157600080fd5b5080359060208101359060408101359060600135612e35565b6001600160a01b0381166000908152606f6020908152604080832054606e9092528220546109d291906109cc90670de0b6b3a7640000906109c6906109a7906109a1612789565b90612fc6565b6001600160a01b0388166000908152607160205260409020549061300f565b90613068565b906130aa565b92915050565b606f6020526000908152604090205481565b6033546001600160a01b031681565b600054600160a81b900460ff1680610a145750610a14613104565b80610a295750600054600160a01b900460ff16155b610a645760405162461bcd60e51b815260040180806020018281038252602e815260200180613813602e913960400191505060405180910390fd5b600054600160a81b900460ff16158015610a9b576000805460ff60a01b1960ff60a81b19909116600160a81b1716600160a01b1790555b610aa48661267b565b610aaf858585612397565b60346020526001600160a01b038216600080516020613792833981519152556765636f526174696f60c01b60005267016345785d8a00006000805160206137d2833981519152558015610b0a576000805460ff60a81b191690555b505050505050565b6033546001600160a01b03163314610b2957600080fd5b610b33828261310a565b5050565b6070545b90565b60745481565b6000808052606f60209081526000805160206137b283398151915254606754835460408051636eb1769f60e11b81526001600160a01b0392831660048201523060248201529051610be695939092169263dd62ed3e92604480840193829003018186803b158015610bb457600080fd5b505afa158015610bc8573d6000803e3d6000fd5b505050506040513d6020811015610bde57600080fd5b505190613131565b905090565b6033546001600160a01b03163314610c0257600080fd5b815181518115801590610c155750600081115b8015610c5e5750826001820381518110610c2b57fe5b60200260200101516001600160a01b0316846001840381518110610c4b57fe5b60200260200101516001600160a01b0316145b610c6757600080fd5b60005b60018303811015610d4257856001600160a01b031663e6a43905868381518110610c9057fe5b6020026020010151878460010181518110610ca757fe5b60200260200101516040518363ffffffff1660e01b815260040180836001600160a01b03168152602001826001600160a01b031681526020019250505060206040518083038186803b158015610cfc57600080fd5b505afa158015610d10573d6000803e3d6000fd5b505050506040513d6020811015610d2657600080fd5b50516001600160a01b0316610d3a57600080fd5b600101610c6a565b5060005b60018203811015610e1e57856001600160a01b031663e6a43905858381518110610d6c57fe5b6020026020010151868460010181518110610d8357fe5b60200260200101516040518363ffffffff1660e01b815260040180836001600160a01b03168152602001826001600160a01b031681526020019250505060206040518083038186803b158015610dd857600080fd5b505afa158015610dec573d6000803e3d6000fd5b505050506040513d6020811015610e0257600080fd5b50516001600160a01b0316610e1657600080fd5b600101610d46565b50607680546001600160a01b0319166001600160a01b0387161790558351610e4d9060779060208701906136ed565b508251610b0a9060789060208601906136ed565b6c3932bbb0b93239992a37b5b2b760991b60005260346020526000805160206138418339815191525490565b60355460ff16610ed2576040805162461bcd60e51b815260206004820152601f6024820152600080516020613772833981519152604482015290519081900360640190fd5b6035805460ff1916905533600080610ee8611540565b600091509150610ef6612789565b606d5542606c556001600160a01b03831615610f4157610f158361095a565b6001600160a01b0384166000908152606f6020908152604080832093909355606d54606e909152919020555b6034602052600080516020613792833981519152546765636f526174696f60c01b6000526000805160206137d2833981519152546001600160a01b03821615801590610f8c57508015155b15610fe757610fa7670de0b6b3a76400006109c6868461300f565b6001600160a01b0383166000908152606f6020526040902054909350610fcd90846130aa565b6001600160a01b0383166000908152606f60205260409020555b60008052606f6020526000805160206137b2833981519152546110109084906109cc90876130aa565b60008052606f6020526000805160206137b2833981519152558561106f576040805162461bcd60e51b8152602060048201526011602482015270043616e6e6f74207769746864726177203607c1b604482015290519081900360640190fd5b60705461107c9087612fc6565b607055336000908152607160205260409020546110999087612fc6565b336000818152607160205260409020919091556068546110c5916001600160a01b039091169088613147565b60408051878152905133917f7084f5476618d8e60b11ef0d7d3f06914655adb8793e28ff7f018d4c76d505d5919081900360200190a250506035805460ff1916600117905550505050565b607754600090158015906111535750606854607780546001600160a01b039092169160009061113b57fe5b6000918252602090912001546001600160a01b031614155b61115c57600080fd5b610be66002607760008154811061116f57fe5b60009182526020918290200154606854604080516370a0823160e01b81526001600160a01b039283166004820152905191909216926370a082319260248082019391829003018186803b1580156111c557600080fd5b505afa1580156111d9573d6000803e3d6000fd5b505050506040513d60208110156111ef57600080fd5b50519061300f565b606b5481565b6000546001600160a01b031633146112465760405162461bcd60e51b815260040180806020018281038252602a815260200180613861602a913960400191505060405180910390fd5b6000806000611253611540565b600091509150611261612789565b606d5542606c556001600160a01b038316156112ac576112808361095a565b6001600160a01b0384166000908152606f6020908152604080832093909355606d54606e909152919020555b6034602052600080516020613792833981519152546765636f526174696f60c01b6000526000805160206137d2833981519152546001600160a01b038216158015906112f757508015155b1561135257611312670de0b6b3a76400006109c6868461300f565b6001600160a01b0383166000908152606f602052604090205490935061133890846130aa565b6001600160a01b0383166000908152606f60205260409020555b60008052606f6020526000805160206137b28339815191525461137b9084906109cc90876130aa565b60008052606f6020526000805160206137b28339815191525560695442106113b357606b546113ab908790613068565b606a556113f6565b6069546000906113c39042612fc6565b905060006113dc606a548361300f90919063ffffffff16565b606b549091506113f0906109c68a846130aa565b606a5550505b606754604080516370a0823160e01b815230600482015290516000926001600160a01b0316916370a08231916024808301926020929190829003018186803b15801561144157600080fd5b505afa158015611455573d6000803e3d6000fd5b505050506040513d602081101561146b57600080fd5b5051606b5490915061147e908290613068565b606a5411156114d4576040805162461bcd60e51b815260206004820152601860248201527f50726f76696465642072657761726420746f6f20686967680000000000000000604482015290519081900360640190fd5b42606c819055606b546114e791906130aa565b6069556040805188815290517fde88a922e0d3b88b24e9623efeb464919c6bf9f66857a65e2bfcf2ce87a9433d9181900360200190a150505050505050565b61152f33611d35565b565b6000546001600160a01b031681565b60006074546000148061155557504260745410155b80611562575042606c5410155b1561156f57506000610b3b565b6000808052606f60209081526000805160206137b283398151915254606754925460408051636eb1769f60e11b81526001600160a01b03928316600482015230602482015290516115e1959394939092169263dd62ed3e92604480840193829003018186803b158015610bb457600080fd5b90506072546003141561164957600061163561160e6074546109a1606b54426130aa90919063ffffffff16565b6109c661162e6074546109a1606b54606c546130aa90919063ffffffff16565b859061300f565b90506116418282612fc6565b915050610b3b565b6072546002141561169857606b54606c54611665904290612fc6565b101561169357611690606b546109c6611689606c5442612fc690919063ffffffff16565b849061300f565b90505b610b3b565b6069544210156116d4576116906116bc606c54606954612fc690919063ffffffff16565b6109c6611689606c5442612fc690919063ffffffff16565b606954606c5410610b3b5750600090565b60006109d2606860009054906101000a90046001600160a01b03166001600160a01b03166318160ddd6040518163ffffffff1660e01b815260040160206040518083038186803b15801561173857600080fd5b505afa15801561174c573d6000803e3d6000fd5b505050506040513d602081101561176257600080fd5b50516109c684611770611110565b9061300f565b6001600160a01b03161860009081526034602052604090205490565b60009081526034602052604090205490565b6001600160a01b031660009081526071602052604090205490565b6068546001600160a01b031681565b606a5481565b6000610be642606954613199565b6033546001600160a01b031633146117f957600080fd5b6033546040516000916001600160a01b0316907fc7c0c772add429241571afb3805861fb3cfa2af374534088b76cdb4325a87e9a908390a3603380546001600160a01b0319169055565b606e6020526000908152604090205481565b1860009081526034602052604090205490565b60725481565b8160005b6001835103811015611a4757607654835160009182916001600160a01b039091169063e6a43905908790869081106118a657fe5b60200260200101518786600101815181106118bd57fe5b60200260200101516040518363ffffffff1660e01b815260040180836001600160a01b03168152602001826001600160a01b031681526020019250505060206040518083038186803b15801561191257600080fd5b505afa158015611926573d6000803e3d6000fd5b505050506040513d602081101561193c57600080fd5b505160408051630240bc6b60e21b815290516001600160a01b0390921691630902f1ac91600480820192606092909190829003018186803b15801561198057600080fd5b505afa158015611994573d6000803e3d6000fd5b505050506040513d60608110156119aa57600080fd5b50805160209091015186516dffffffffffffffffffffffffffff9283169450911691508590849081106119d957fe5b60200260200101516001600160a01b03168584600101815181106119f957fe5b60200260200101516001600160a01b031610611a275781611a1a858361300f565b81611a2157fe5b04611a3b565b80611a32858461300f565b81611a3957fe5b045b93505050600101611872565b5092915050565b60756020526000908152604090205481565b60355460ff16611aa5576040805162461bcd60e51b815260206004820152601f6024820152600080516020613772833981519152604482015290519081900360640190fd5b6035805460ff1916905533600080611abb611540565b600091509150611ac9612789565b606d5542606c556001600160a01b03831615611b1457611ae88361095a565b6001600160a01b0384166000908152606f6020908152604080832093909355606d54606e909152919020555b6034602052600080516020613792833981519152546765636f526174696f60c01b6000526000805160206137d2833981519152546001600160a01b03821615801590611b5f57508015155b15611bba57611b7a670de0b6b3a76400006109c6868461300f565b6001600160a01b0383166000908152606f6020526040902054909350611ba090846130aa565b6001600160a01b0383166000908152606f60205260409020555b60008052606f6020526000805160206137b283398151915254611be39084906109cc90876130aa565b60008052606f6020526000805160206137b28339815191525585611c3f576040805162461bcd60e51b815260206004820152600e60248201526d043616e6e6f74207374616b6520360941b604482015290519081900360640190fd5b607054611c4c90876130aa565b60705533600090815260716020526040902054611c6990876130aa565b33600081815260716020526040902091909155606854611c96916001600160a01b039091169030896131af565b60408051878152905133917f9e71bc8eea02a63969f509818f2dafb9254532904319f9dbda79b67bd34a5f3d919081900360200190a250506035805460ff1916600117905550505050565b6033546001600160a01b03163314611cf857600080fd5b611d0d6001600160a01b03831684188261310a565b505050565b6033546001600160a01b03163314611d2957600080fd5b611d3281613209565b50565b60355460ff16611d7a576040805162461bcd60e51b815260206004820152601f6024820152600080516020613772833981519152604482015290519081900360640190fd5b6035805460ff1916905580600080611d90611540565b600091509150611d9e612789565b606d5542606c556001600160a01b03831615611de957611dbd8361095a565b6001600160a01b0384166000908152606f6020908152604080832093909355606d54606e909152919020555b6034602052600080516020613792833981519152546765636f526174696f60c01b6000526000805160206137d2833981519152546001600160a01b03821615801590611e3457508015155b15611e8f57611e4f670de0b6b3a76400006109c6868461300f565b6001600160a01b0383166000908152606f6020526040902054909350611e7590846130aa565b6001600160a01b0383166000908152606f60205260409020555b60008052606f6020526000805160206137b283398151915254611eb89084906109cc90876130aa565b60008052606f6020526000805160206137b2833981519152556001600160a01b038616611f1e576040805162461bcd60e51b815260206004820152600f60248201526e696e76616c6964206164647265737360881b604482015290519081900360640190fd5b611f3468189b1bd8dadb1a5cdd60ba1b87611776565b15611f75576040805162461bcd60e51b815260206004820152600c60248201526b125b88189b1bd8dadb1a5cdd60a21b604482015290519081900360640190fd5b6000611f89876001600160a01b0316613278565b9050801580611fd157506c185b1b1bddd0dbdb9d1c9858dd609a1b60005260346020527f4deb099091df73f35f9ada250582158c17f1219d51a0bdee7361e41858d9cde15415155b80611ff05750611fed68185b1b1bdddb1a5cdd60ba1b88611776565b15155b612034576040805162461bcd60e51b815260206004820152601060248201526f139bc8185b1b1bddd0dbdb9d1c9858dd60821b604482015290519081900360640190fd5b6001600160a01b0387166000908152606f60205260409020548015612380576001600160a01b03881660009081526075602052604090205461207690826130aa565b6001600160a01b03891660009081526075602052604081209190915580527ff9e3fbf150b7a0077118526f473c53cb4734f166167e2c6213e3567dd390b4ad546120c090826130aa565b7ff9e3fbf150b7a0077118526f473c53cb4734f166167e2c6213e3567dd390b4ad556001600160a01b0388166000908152606f6020526040812081905580526000805160206137b2833981519152546121199082613131565b6000808052606f6020526000805160206137b28339815191529190915554606754612152916001600160a01b0391821691168a846131af565b6040805182815290516001600160a01b038a16917fe2403640ba68fed3a2f88b7557551d1993f84b99bb10ff833f0cf8db0c5e0486919081900360200190a26c3932bbb0b93239992a37b5b2b760991b6000526034602052600080516020613841833981519152541580159061220257506c3932bbb0b93239992132b3b4b760991b60005260346020527fcbc1cdb6103c53aa8d3e0f1dbc8da3ac5b94351631386e5e1bc5947bdfa02e6a544210155b15612380576c7265776172647332526174696f60981b600090815260346020527fd2604c4e337f08b5db86922a66d9ee41dfd25383e923f4861e44b626e3148ba5546122ff9061226190670de0b6b3a7640000906109c690869061300f565b6c3932bbb0b93239992a37b5b2b760991b6000526034602090815260008051602061384183398151915254604080516370a0823160e01b815230600482015290516001600160a01b03909216926370a0823192602480840193829003018186803b1580156122ce57600080fd5b505afa1580156122e2573d6000803e3d6000fd5b505050506040513d60208110156122f857600080fd5b5051613199565b6c3932bbb0b93239992a37b5b2b760991b60005260346020526000805160206138418339815191525490915061233f906001600160a01b03168a83613147565b6040805182815290516001600160a01b038b16917f631f12791e7e0e92ba44f2520d53a5df1c4c7aa7311b43078b56168dce0bac7d919081900360200190a2505b50506035805460ff19166001179055505050505050565b600054600160a81b900460ff16806123b257506123b2613104565b806123c75750600054600160a01b900460ff16155b6124025760405162461bcd60e51b815260040180806020018281038252602e815260200180613813602e913960400191505060405180910390fd5b600054600160a81b900460ff16158015612439576000805460ff60a01b1960ff60a81b19909116600160a81b1716600160a01b1790555b6124416132b4565b606780546001600160a01b038086166001600160a01b031992831617909255606880548584169083161790556000805492871692909116919091179055624f1a00606b558015612499576000805460ff60a81b191690555b50505050565b6033546001600160a01b031633146124b657600080fd5b60008060006124c3611540565b6000915091506124d1612789565b606d5542606c556001600160a01b0383161561251c576124f08361095a565b6001600160a01b0384166000908152606f6020908152604080832093909355606d54606e909152919020555b6034602052600080516020613792833981519152546765636f526174696f60c01b6000526000805160206137d2833981519152546001600160a01b0382161580159061256757508015155b156125c257612582670de0b6b3a76400006109c6868461300f565b6001600160a01b0383166000908152606f60205260409020549093506125a890846130aa565b6001600160a01b0383166000908152606f60205260409020555b60008052606f6020526000805160206137b2833981519152546125eb9084906109cc90876130aa565b6000805160206137b283398151915255505060346020525050506001600160a01b0392909216600080516020613841833981519152557fd2604c4e337f08b5db86922a66d9ee41dfd25383e923f4861e44b626e3148ba5556c3932bbb0b93239992132b3b4b760991b6000527fcbc1cdb6103c53aa8d3e0f1dbc8da3ac5b94351631386e5e1bc5947bdfa02e6a55565b600054600160a81b900460ff16806126965750612696613104565b806126ab5750600054600160a01b900460ff16155b6126e65760405162461bcd60e51b815260040180806020018281038252602e815260200180613813602e913960400191505060405180910390fd5b600054600160a81b900460ff1615801561271d576000805460ff60a01b1960ff60a81b19909116600160a81b1716600160a01b1790555b603380546001600160a01b0319166001600160a01b0384811691909117918290556040519116906000907fc7c0c772add429241571afb3805861fb3cfa2af374534088b76cdb4325a87e9a908290a38015610b33576000805460ff60a81b191690555050565b606c5481565b60006070546000141561279f5750606d54610b3b565b610be66127bc6070546109c6670de0b6b3a7640000611770611540565b606d54906130aa565b6067546001600160a01b031681565b6033546001600160a01b031633146127eb57600080fd5b611d0d8383188261310a565b606d5481565b3360009081526071602052604090205461281690610e8d565b61152f611526565b60695481565b60355460ff16612869576040805162461bcd60e51b815260206004820152601f6024820152600080516020613772833981519152604482015290519081900360640190fd5b6035805460ff191690553360008061287f611540565b60009150915061288d612789565b606d5542606c556001600160a01b038316156128d8576128ac8361095a565b6001600160a01b0384166000908152606f6020908152604080832093909355606d54606e909152919020555b6034602052600080516020613792833981519152546765636f526174696f60c01b6000526000805160206137d2833981519152546001600160a01b0382161580159061292357508015155b1561297e5761293e670de0b6b3a76400006109c6868461300f565b6001600160a01b0383166000908152606f602052604090205490935061296490846130aa565b6001600160a01b0383166000908152606f60205260409020555b60008052606f6020526000805160206137b2833981519152546129a79084906109cc90876130aa565b60008052606f6020526000805160206137b28339815191525589612a03576040805162461bcd60e51b815260206004820152600e60248201526d043616e6e6f74207374616b6520360941b604482015290519081900360640190fd5b607054612a10908b6130aa565b60705533600090815260716020526040902054612a2d908b6130aa565b3360008181526071602052604080822093909355606854835163d505accf60e01b81526004810193909352306024840152604483018e9052606483018d905260ff8c16608484015260a483018b905260c483018a905292516001600160a01b039093169263d505accf9260e480820193929182900301818387803b158015612ab457600080fd5b505af1158015612ac8573d6000803e3d6000fd5b5050606854612ae592506001600160a01b0316905033308d6131af565b604080518b8152905133917f9e71bc8eea02a63969f509818f2dafb9254532904319f9dbda79b67bd34a5f3d919081900360200190a250506035805460ff191660011790555050505050505050565b606854607780546000926001600160a01b031691908390612b5157fe5b6000918252602090912001546001600160a01b031614612b7a57612b73611110565b9050612b85565b612b82610b37565b90505b610be6816077805480602002602001604051908101604052809291908181526020018280548015612bdf57602002820191906000526020600020905b81546001600160a01b03168152600190910190602001808311612bc1575b505050505061186e565b60735481565b6000808052606f60209081526000805160206137b283398151915254606754835460408051636eb1769f60e11b81526001600160a01b03928316600482015230602482015290518695612c6295949093169263dd62ed3e9260448082019391829003018186803b158015610bb457600080fd5b905060725460031415612cd4576000612cc0612c946074546109a1606b546109cc6001426130aa90919063ffffffff16565b6109c6612cb26074546109a1606b54426130aa90919063ffffffff16565b611770866301e1338061300f565b9050612ccc8282612fc6565b915050612d3c565b60725460021415612cfb57606b54612cf4906109c6836301e1338061300f565b9050612d3c565b606954421015612d2d57612cf4612d1f606c54606954612fc690919063ffffffff16565b6109c6836301e1338061300f565b606954606c5410612d3c575060005b6078600081548110612d4a57fe5b6000918252602090912001546067546001600160a01b03908116911614612d7057600080fd5b612dd2816078805480602002602001604051908101604052809291908181526020018280548015612bdf576020028201919060005260206000209081546001600160a01b03168152600190910190602001808311612bc157505050505061186e565b9050612df1612ddf612b34565b6109c683670de0b6b3a764000061300f565b91505090565b6c7265776172647332526174696f60981b60005260346020527fd2604c4e337f08b5db86922a66d9ee41dfd25383e923f4861e44b626e3148ba55490565b6033546001600160a01b03163314612e4c57600080fd5b6000806000612e59611540565b600091509150612e67612789565b606d5542606c556001600160a01b03831615612eb257612e868361095a565b6001600160a01b0384166000908152606f6020908152604080832093909355606d54606e909152919020555b6034602052600080516020613792833981519152546765636f526174696f60c01b6000526000805160206137d2833981519152546001600160a01b03821615801590612efd57508015155b15612f5857612f18670de0b6b3a76400006109c6868461300f565b6001600160a01b0383166000908152606f6020526040902054909350612f3e90846130aa565b6001600160a01b0383166000908152606f60205260409020555b60008052606f6020526000805160206137b283398151915254612f819084906109cc90876130aa565b60008052606f6020526000805160206137b28339815191525560728990556073889055606b8790556074869055612fb886886130aa565b606955505050505050505050565b600061300883836040518060400160405280601e81526020017f536166654d6174683a207375627472616374696f6e206f766572666c6f770000815250613374565b9392505050565b60008261301e575060006109d2565b8282028284828161302b57fe5b04146130085760405162461bcd60e51b81526004018080602001828103825260218152602001806137f26021913960400191505060405180910390fd5b600061300883836040518060400160405280601a81526020017f536166654d6174683a206469766973696f6e206279207a65726f00000000000081525061340b565b600082820183811015613008576040805162461bcd60e51b815260206004820152601b60248201527f536166654d6174683a206164646974696f6e206f766572666c6f770000000000604482015290519081900360640190fd5b303b1590565b6000828152603460205260409020548114610b335760009182526034602052604090912055565b6000818311613141576000613008565b50900390565b604080516001600160a01b038416602482015260448082018490528251808303909101815260649091019091526020810180516001600160e01b031663a9059cbb60e01b179052611d0d908490613470565b60008183106131a85781613008565b5090919050565b604080516001600160a01b0380861660248301528416604482015260648082018490528251808303909101815260849091019091526020810180516001600160e01b03166323b872dd60e01b179052612499908590613470565b6001600160a01b03811661321c57600080fd5b6033546040516001600160a01b038084169216907fc7c0c772add429241571afb3805861fb3cfa2af374534088b76cdb4325a87e9a90600090a3603380546001600160a01b0319166001600160a01b0392909216919091179055565b6000813f7fc5d2460186f7233c927e7db2dcc703c0e500b653ca82273b7bfad8045d85a4708181148015906132ac57508115155b949350505050565b600054600160a81b900460ff16806132cf57506132cf613104565b806132e45750600054600160a01b900460ff16155b61331f5760405162461bcd60e51b815260040180806020018281038252602e815260200180613813602e913960400191505060405180910390fd5b600054600160a81b900460ff16158015613356576000805460ff60a01b1960ff60a81b19909116600160a81b1716600160a01b1790555b61335e613628565b8015611d32576000805460ff60a81b1916905550565b600081848411156134035760405162461bcd60e51b81526004018080602001828103825283818151815260200191508051906020019080838360005b838110156133c85781810151838201526020016133b0565b50505050905090810190601f1680156133f55780820380516001836020036101000a031916815260200191505b509250505060405180910390fd5b505050900390565b6000818361345a5760405162461bcd60e51b81526020600482018181528351602484015283519092839260449091019190850190808383600083156133c85781810151838201526020016133b0565b50600083858161346657fe5b0495945050505050565b613482826001600160a01b0316613278565b6134d3576040805162461bcd60e51b815260206004820152601f60248201527f5361666545524332303a2063616c6c20746f206e6f6e2d636f6e747261637400604482015290519081900360640190fd5b60006060836001600160a01b0316836040518082805190602001908083835b602083106135115780518252601f1990920191602091820191016134f2565b6001836020036101000a0380198251168184511680821785525050505050509050019150506000604051808303816000865af19150503d8060008114613573576040519150601f19603f3d011682016040523d82523d6000602084013e613578565b606091505b5091509150816135cf576040805162461bcd60e51b815260206004820181905260248201527f5361666545524332303a206c6f772d6c6576656c2063616c6c206661696c6564604482015290519081900360640190fd5b805115612499578080602001905160208110156135eb57600080fd5b50516124995760405162461bcd60e51b815260040180806020018281038252602a81526020018061388b602a913960400191505060405180910390fd5b600054600160a81b900460ff16806136435750613643613104565b806136585750600054600160a01b900460ff16155b6136935760405162461bcd60e51b815260040180806020018281038252602e815260200180613813602e913960400191505060405180910390fd5b600054600160a81b900460ff161580156136ca576000805460ff60a01b1960ff60a81b19909116600160a81b1716600160a01b1790555b6035805460ff191660011790558015611d32576000805460ff60a81b1916905550565b828054828255906000526020600020908101928215613742579160200282015b8281111561374257825182546001600160a01b0319166001600160a01b0390911617825560209092019160019091019061370d565b5061374e929150613752565b5090565b5b8082111561374e5780546001600160a01b031916815560010161375356fe5265656e7472616e637947756172643a207265656e7472616e742063616c6c0082e0b58992d24d827851dcbd63485b5933f9d3ae4c2ca50477d1437e73f6d342d0170a6220fef73a7dd2c1e9984b0b3831956884ac33b7728dde627780a65be5fc6561c6b7742261fbeab673eba1bedd2f5b1d7221f757ea8c9a87d664cfbed2536166654d6174683a206d756c7469706c69636174696f6e206f766572666c6f77436f6e747261637420696e7374616e63652068617320616c7265616479206265656e20696e697469616c697a6564948e27be5e92708dd7715302253e33414096ca0bd36acc0bc984e4cdecf678e343616c6c6572206973206e6f742052657761726473446973747269627574696f6e20636f6e74726163745361666545524332303a204552433230206f7065726174696f6e20646964206e6f742073756363656564a2646970667358221220e25d04d50697856885800aed5fbd32ff2764ea9070e8deafe7d159cc648dfd6d64736f6c634300060c0033",
  "linkReferences": {},
  "deployedLinkReferences": {}
}