{
  "_format": "hh-sol-artifact-1",
  "contractName": "TokenFixedSwap",
  "sourceName": "contracts/TokenFixedSwap.sol",
  "abi": [
    {
      "anonymous": false,
      "inputs": [
        {
          "indexed": true,
          "internalType": "uint256",
          "name": "index",
          "type": "uint256"
        },
        {
          "indexed": true,
          "internalType": "address",
          "name": "sender",
          "type": "address"
        },
        {
          "components": [
            {
              "internalType": "address payable",
              "name": "creator",
              "type": "address"
            },
            {
              "internalType": "address",
              "name": "token0",
              "type": "address"
            },
            {
              "internalType": "address",
              "name": "token1",
              "type": "address"
            },
            {
              "internalType": "uint256",
              "name": "amountTotal0",
              "type": "uint256"
            },
            {
              "internalType": "uint256",
              "name": "amountTotal1",
              "type": "uint256"
            },
            {
              "internalType": "uint256",
              "name": "maxAllocToken1",
              "type": "uint256"
            },
            {
              "internalType": "uint256",
              "name": "openAt",
              "type": "uint256"
            },
            {
              "internalType": "uint256",
              "name": "closeAt",
              "type": "uint256"
            },
            {
              "internalType": "uint256",
              "name": "claimAt",
              "type": "uint256"
            },
            {
              "internalType": "bool",
              "name": "enableWhiteList",
              "type": "bool"
            }
          ],
          "indexed": false,
          "internalType": "struct TokenFixedSwap.Pool",
          "name": "pool",
          "type": "tuple"
        }
      ],
      "name": "Created",
      "type": "event"
    },
    {
      "anonymous": false,
      "inputs": [
        {
          "indexed": true,
          "internalType": "address",
          "name": "previousOwner",
          "type": "address"
        },
        {
          "indexed": true,
          "internalType": "address",
          "name": "newOwner",
          "type": "address"
        }
      ],
      "name": "OwnershipTransferred",
      "type": "event"
    },
    {
      "anonymous": false,
      "inputs": [
        {
          "indexed": true,
          "internalType": "uint256",
          "name": "index",
          "type": "uint256"
        },
        {
          "indexed": true,
          "internalType": "address",
          "name": "sender",
          "type": "address"
        },
        {
          "indexed": false,
          "internalType": "uint256",
          "name": "amount0",
          "type": "uint256"
        }
      ],
      "name": "PoolClaimed",
      "type": "event"
    },
    {
      "anonymous": false,
      "inputs": [
        {
          "indexed": true,
          "internalType": "uint256",
          "name": "index",
          "type": "uint256"
        },
        {
          "indexed": true,
          "internalType": "address",
          "name": "sender",
          "type": "address"
        },
        {
          "indexed": false,
          "internalType": "uint256",
          "name": "amount0",
          "type": "uint256"
        },
        {
          "indexed": false,
          "internalType": "uint256",
          "name": "amount1",
          "type": "uint256"
        }
      ],
      "name": "Swapped",
      "type": "event"
    },
    {
      "anonymous": false,
      "inputs": [
        {
          "indexed": true,
          "internalType": "uint256",
          "name": "index",
          "type": "uint256"
        },
        {
          "indexed": true,
          "internalType": "address",
          "name": "sender",
          "type": "address"
        },
        {
          "indexed": false,
          "internalType": "uint256",
          "name": "amount0",
          "type": "uint256"
        }
      ],
      "name": "UserClaimed",
      "type": "event"
    },
    {
      "inputs": [
        {
          "internalType": "uint256",
          "name": "index",
          "type": "uint256"
        },
        {
          "internalType": "address[]",
          "name": "whitelist_",
          "type": "address[]"
        }
      ],
      "name": "addWhitelist",
      "outputs": [],
      "stateMutability": "nonpayable",
      "type": "function"
    },
    {
      "inputs": [
        {
          "components": [
            {
              "internalType": "address payable",
              "name": "creator",
              "type": "address"
            },
            {
              "internalType": "address",
              "name": "token0",
              "type": "address"
            },
            {
              "internalType": "address",
              "name": "token1",
              "type": "address"
            },
            {
              "internalType": "uint256",
              "name": "amountTotal0",
              "type": "uint256"
            },
            {
              "internalType": "uint256",
              "name": "amountTotal1",
              "type": "uint256"
            },
            {
              "internalType": "uint256",
              "name": "maxAllocToken1",
              "type": "uint256"
            },
            {
              "internalType": "uint256",
              "name": "openAt",
              "type": "uint256"
            },
            {
              "internalType": "uint256",
              "name": "closeAt",
              "type": "uint256"
            },
            {
              "internalType": "uint256",
              "name": "claimAt",
              "type": "uint256"
            },
            {
              "internalType": "bool",
              "name": "enableWhiteList",
              "type": "bool"
            }
          ],
          "internalType": "struct TokenFixedSwap.Pool",
          "name": "pool",
          "type": "tuple"
        },
        {
          "internalType": "address[]",
          "name": "whitelist_",
          "type": "address[]"
        }
      ],
      "name": "create",
      "outputs": [],
      "stateMutability": "nonpayable",
      "type": "function"
    },
    {
      "inputs": [
        {
          "internalType": "uint256",
          "name": "",
          "type": "uint256"
        }
      ],
      "name": "enableWhiteList",
      "outputs": [
        {
          "internalType": "bool",
          "name": "",
          "type": "bool"
        }
      ],
      "stateMutability": "view",
      "type": "function"
    },
    {
      "inputs": [],
      "name": "getPoolCount",
      "outputs": [
        {
          "internalType": "uint256",
          "name": "",
          "type": "uint256"
        }
      ],
      "stateMutability": "view",
      "type": "function"
    },
    {
      "inputs": [],
      "name": "initialize",
      "outputs": [],
      "stateMutability": "nonpayable",
      "type": "function"
    },
    {
      "inputs": [
        {
          "internalType": "address",
          "name": "",
          "type": "address"
        },
        {
          "internalType": "uint256",
          "name": "",
          "type": "uint256"
        }
      ],
      "name": "myAmountSwapped0",
      "outputs": [
        {
          "internalType": "uint256",
          "name": "",
          "type": "uint256"
        }
      ],
      "stateMutability": "view",
      "type": "function"
    },
    {
      "inputs": [
        {
          "internalType": "address",
          "name": "",
          "type": "address"
        },
        {
          "internalType": "uint256",
          "name": "",
          "type": "uint256"
        }
      ],
      "name": "myAmountSwapped1",
      "outputs": [
        {
          "internalType": "uint256",
          "name": "",
          "type": "uint256"
        }
      ],
      "stateMutability": "view",
      "type": "function"
    },
    {
      "inputs": [
        {
          "internalType": "address",
          "name": "",
          "type": "address"
        },
        {
          "internalType": "uint256",
          "name": "",
          "type": "uint256"
        }
      ],
      "name": "myClaimed",
      "outputs": [
        {
          "internalType": "bool",
          "name": "",
          "type": "bool"
        }
      ],
      "stateMutability": "view",
      "type": "function"
    },
    {
      "inputs": [],
      "name": "owner",
      "outputs": [
        {
          "internalType": "address",
          "name": "",
          "type": "address"
        }
      ],
      "stateMutability": "view",
      "type": "function"
    },
    {
      "inputs": [
        {
          "internalType": "uint256",
          "name": "index",
          "type": "uint256"
        }
      ],
      "name": "poolClaim",
      "outputs": [],
      "stateMutability": "nonpayable",
      "type": "function"
    },
    {
      "inputs": [
        {
          "internalType": "address",
          "name": "",
          "type": "address"
        },
        {
          "internalType": "uint256",
          "name": "",
          "type": "uint256"
        }
      ],
      "name": "poolClaimed",
      "outputs": [
        {
          "internalType": "bool",
          "name": "",
          "type": "bool"
        }
      ],
      "stateMutability": "view",
      "type": "function"
    },
    {
      "inputs": [
        {
          "internalType": "uint256",
          "name": "index",
          "type": "uint256"
        },
        {
          "internalType": "address[]",
          "name": "whitelist_",
          "type": "address[]"
        }
      ],
      "name": "removeWhitelist",
      "outputs": [],
      "stateMutability": "nonpayable",
      "type": "function"
    },
    {
      "inputs": [],
      "name": "renounceOwnership",
      "outputs": [],
      "stateMutability": "nonpayable",
      "type": "function"
    },
    {
      "inputs": [
        {
          "internalType": "uint256",
          "name": "index",
          "type": "uint256"
        },
        {
          "internalType": "uint256",
          "name": "amount1",
          "type": "uint256"
        }
      ],
      "name": "swap",
      "outputs": [],
      "stateMutability": "payable",
      "type": "function"
    },
    {
      "inputs": [
        {
          "internalType": "uint256",
          "name": "",
          "type": "uint256"
        }
      ],
      "name": "timeInfos",
      "outputs": [
        {
          "internalType": "uint256",
          "name": "openAt",
          "type": "uint256"
        },
        {
          "internalType": "uint256",
          "name": "closeAt",
          "type": "uint256"
        },
        {
          "internalType": "uint256",
          "name": "claimAt",
          "type": "uint256"
        }
      ],
      "stateMutability": "view",
      "type": "function"
    },
    {
      "inputs": [
        {
          "internalType": "uint256",
          "name": "",
          "type": "uint256"
        }
      ],
      "name": "tokenInfos",
      "outputs": [
        {
          "internalType": "address payable",
          "name": "creator",
          "type": "address"
        },
        {
          "internalType": "address",
          "name": "token0",
          "type": "address"
        },
        {
          "internalType": "address",
          "name": "token1",
          "type": "address"
        },
        {
          "internalType": "uint256",
          "name": "amountTotal0",
          "type": "uint256"
        },
        {
          "internalType": "uint256",
          "name": "amountTotal1",
          "type": "uint256"
        },
        {
          "internalType": "uint256",
          "name": "maxAllocToken1",
          "type": "uint256"
        },
        {
          "internalType": "uint256",
          "name": "amountSwap0",
          "type": "uint256"
        },
        {
          "internalType": "uint256",
          "name": "amountSwap1",
          "type": "uint256"
        }
      ],
      "stateMutability": "view",
      "type": "function"
    },
    {
      "inputs": [
        {
          "internalType": "address",
          "name": "newOwner",
          "type": "address"
        }
      ],
      "name": "transferOwnership",
      "outputs": [],
      "stateMutability": "nonpayable",
      "type": "function"
    },
    {
      "inputs": [
        {
          "internalType": "uint256",
          "name": "index",
          "type": "uint256"
        }
      ],
      "name": "userClaim",
      "outputs": [],
      "stateMutability": "nonpayable",
      "type": "function"
    },
    {
      "inputs": [
        {
          "internalType": "uint256",
          "name": "",
          "type": "uint256"
        },
        {
          "internalType": "address",
          "name": "",
          "type": "address"
        }
      ],
      "name": "whitelist",
      "outputs": [
        {
          "internalType": "bool",
          "name": "",
          "type": "bool"
        }
      ],
      "stateMutability": "view",
      "type": "function"
    }
  ],
  "bytecode": "0x608060405234801561001057600080fd5b506128c6806100206000396000f3fe6080604052600436106101145760003560e01c80638129fc1c116100a0578063d96073cf11610064578063d96073cf14610302578063e471039014610315578063f2fde38b14610335578063f5da2b4c14610355578063fe43efda1461037557610114565b80638129fc1c146102765780638aa1e44e1461028b5780638da5cb5b146102ab5780638eec5d70146102cd578063a5ed536f146102e257610114565b80636c221098116100e75780636c221098146101be578063715018a6146101de57806379f61ca3146101f35780637c13774b146102225780637f360cde1461025657610114565b806304746cef14610119578063211f41911461013b5780633a06d35f146101715780634b25bfce1461019e575b600080fd5b34801561012557600080fd5b50610139610134366004611f3a565b610395565b005b34801561014757600080fd5b5061015b610156366004611e18565b6105b4565b60405161016891906127f0565b60405180910390f35b34801561017d57600080fd5b5061019161018c366004611f3a565b6105d1565b60405161016891906120ca565b3480156101aa57600080fd5b506101916101b9366004611f6a565b6105e6565b3480156101ca57600080fd5b506101396101d9366004611f99565b610606565b3480156101ea57600080fd5b50610139610653565b3480156101ff57600080fd5b5061021361020e366004611f3a565b6106dc565b60405161016893929190612807565b34801561022e57600080fd5b5061024261023d366004611f3a565b6106fd565b60405161016898979695949392919061202c565b34801561026257600080fd5b50610139610271366004611e5f565b61075e565b34801561028257600080fd5b506101396109b3565b34801561029757600080fd5b506101396102a6366004611f99565b6109bd565b3480156102b757600080fd5b506102c0610a06565b6040516101689190612018565b3480156102d957600080fd5b5061015b610a15565b3480156102ee57600080fd5b5061015b6102fd366004611e18565b610a1b565b610139610310366004611fc8565b610a38565b34801561032157600080fd5b50610191610330366004611e18565b610f5a565b34801561034157600080fd5b50610139610350366004611dfc565b610f7a565b34801561036157600080fd5b50610191610370366004611e18565b61103b565b34801561038157600080fd5b50610139610390366004611f3a565b61105b565b606754819081106103c15760405162461bcd60e51b81526004016103b890612602565b60405180910390fd5b60008281526068602052604090206001015482904210156103f45760405162461bcd60e51b81526004016103b890612250565b6000838152606860205260409020600201548390158061042557506000818152606860205260409020600201544210155b6104415760405162461bcd60e51b81526004016103b89061250b565b610449611cde565b6067858154811061045657fe5b600091825260208083206040805161010081018252600890940290910180546001600160a01b0390811680865260018301548216868601526002830154909116858401526003820154606086015260048201546080860152600582015460a0860152600682015460c086015260079091015460e08501528452606982528084208985529091529091205490915060ff16156105035760405162461bcd60e51b81526004016103b890612108565b80516001600160a01b031660009081526069602090815260408083208884529091528120805460ff1916600117905560c0820151606083015161054591611306565b9050801561056a578151602083015161056a916001600160a01b039091169083611333565b336001600160a01b0316867fb98ac021efb4dcb663debaf42b4a3b18f11e3b97e9f897e2b3537be01b3daf60836040516105a491906127f0565b60405180910390a3505050505050565b606c60209081526000928352604080842090915290825290205481565b60656020526000908152604090205460ff1681565b606660209081526000928352604080842090915290825290205460ff1681565b61060e61138e565b6001600160a01b031661061f610a06565b6001600160a01b0316146106455760405162461bcd60e51b81526004016103b890612572565b61064f8282611392565b5050565b61065b61138e565b6001600160a01b031661066c610a06565b6001600160a01b0316146106925760405162461bcd60e51b81526004016103b890612572565b6033546040516000916001600160a01b0316907f8be0079c531659141344cd1fd0a4f28419497f9722a3daafe3b4186f6b6457e0908390a3603380546001600160a01b0319169055565b60686020526000908152604090208054600182015460029092015490919083565b6067818154811061070a57fe5b6000918252602090912060089091020180546001820154600283015460038401546004850154600586015460068701546007909701546001600160a01b039687169850948616969390951694919390929088565b61076661138e565b6001600160a01b0316610777610a06565b6001600160a01b03161461079d5760405162461bcd60e51b81526004016103b890612572565b60208201516040516370a0823160e01b81526000906001600160a01b038316906370a08231906107d1903090600401612018565b60206040518083038186803b1580156107e957600080fd5b505afa1580156107fd573d6000803e3d6000fd5b505050506040513d601f19601f820116820180604052508101906108219190611f52565b84516060860151919250610842916001600160a01b038516919030906113f2565b83606001516108cd82846001600160a01b03166370a08231306040518263ffffffff1660e01b81526004016108779190612018565b60206040518083038186803b15801561088f57600080fd5b505afa1580156108a3573d6000803e3d6000fd5b505050506040513d601f19601f820116820180604052508101906108c79190611f52565b90611306565b146108ea5760405162461bcd60e51b81526004016103b8906125a7565b6108ff6001600160a01b038316306000611419565b6000610909610a15565b9050846101200151156109295761091f816114dc565b61092981856114f7565b61094f856000015186602001518760400151886060015189608001518a60a0015161155d565b50610969818660c001518760e00151886101000151611795565b50336001600160a01b0316817fcf25322f9f37d18494fccc013346e0587606a1898dd1bfe0158677094a799786876040516109a4919061275d565b60405180910390a35050505050565b6109bb611848565b565b6109c561138e565b6001600160a01b03166109d6610a06565b6001600160a01b0316146109fc5760405162461bcd60e51b81526004016103b890612572565b61064f82826114f7565b6033546001600160a01b031690565b60675490565b606b60209081526000928352604080842090915290825290205481565b60675482908110610a5b5760405162461bcd60e51b81526004016103b890612602565b60008381526068602052604090205483904210801590610a8b575060008181526068602052604090206001015442105b610aa75760405162461bcd60e51b81526004016103b890612704565b8333610ab2826118db565b15610add57610ac182826118f3565b610add5760405162461bcd60e51b81526004016103b8906122ed565b610ae5611cde565b60678781548110610af257fe5b60009182526020918290206040805161010081018252600890930290910180546001600160a01b039081168452600182015481169484019490945260028101549093169082015260038201546060820152600482015460808201819052600583015460a0830152600683015460c083015260079092015460e0820181905290925010610b905760405162461bcd60e51b81526004016103b8906121b9565b600080610bae8360e00151846080015161130690919063ffffffff16565b905087811015610bc957610bc28882611306565b9150610bcc565b50865b6000610bf38460800151610bed86606001518561191e90919063ffffffff16565b9061195f565b90506000610c128560c00151866060015161130690919063ffffffff16565b905081811115610c1f5750805b60c0850151610c2e9082611991565b60678c81548110610c3b57fe5b600091825260209091206006600890920201015560e0850151610c5e9084611991565b60678c81548110610c6b57fe5b6000918252602080832060076008909302019190910192909255338152606b825260408082208e83529092522054610ca39082611991565b336000908152606b602090815260408083208f845290915290205560a085015115610d515760a0850151336000908152606c602090815260408083208f8452909152902054610cf29085611991565b1115610d105760405162461bcd60e51b81526004016103b8906124dd565b336000908152606c602090815260408083208e8452909152902054610d359084611991565b336000908152606c602090815260408083208f84529091529020555b60408501516001600160a01b0316610d8757893414610d825760405162461bcd60e51b81526004016103b89061243a565b610dbf565b3415610da55760405162461bcd60e51b81526004016103b89061227f565b6040850151610dbf906001600160a01b031633308d6113f2565b610dc88b6119b6565b15610e31578015610e315760208501516001600160a01b0316610e1857604051339082156108fc029083906000818181858888f19350505050158015610e12573d6000803e3d6000fd5b50610e31565b6020850151610e31906001600160a01b03163383611333565b8315610e955760408501516001600160a01b0316610e7c57604051339085156108fc029086906000818181858888f19350505050158015610e76573d6000803e3d6000fd5b50610e95565b6040850151610e95906001600160a01b03163386611333565b8215610f095760408501516001600160a01b0316610eec5784516040516001600160a01b039091169084156108fc029085906000818181858888f19350505050158015610ee6573d6000803e3d6000fd5b50610f09565b84516040860151610f09916001600160a01b039091169085611333565b336001600160a01b03168b7fe5903af08592742a0f3632ef378be3612814d51c4169d376f3eff65dd798be6d8386604051610f459291906127f9565b60405180910390a35050505050505050505050565b606a60209081526000928352604080842090915290825290205460ff1681565b610f8261138e565b6001600160a01b0316610f93610a06565b6001600160a01b031614610fb95760405162461bcd60e51b81526004016103b890612572565b6001600160a01b038116610fdf5760405162461bcd60e51b81526004016103b890612173565b6033546040516001600160a01b038084169216907f8be0079c531659141344cd1fd0a4f28419497f9722a3daafe3b4186f6b6457e090600090a3603380546001600160a01b0319166001600160a01b0392909216919091179055565b606960209081526000928352604080842090915290825290205460ff1681565b6067548190811061107e5760405162461bcd60e51b81526004016103b890612602565b60008281526068602052604090206001015482904210156110b15760405162461bcd60e51b81526004016103b890612250565b600083815260686020526040902060020154839015806110e257506000818152606860205260409020600201544210155b6110fe5760405162461bcd60e51b81526004016103b89061250b565b611106611cde565b6067858154811061111357fe5b60009182526020918290206040805161010081018252600890930290910180546001600160a01b03908116845260018201548116948401949094526002810154909316908201526003820154606082015260048201546080820152600582015460a0820152600682015460c082015260079091015460e08201529050611198856119b6565b156111b55760405162461bcd60e51b81526004016103b89061236a565b336000908152606a6020908152604080832088845290915290205460ff16156111f05760405162461bcd60e51b81526004016103b8906125dc565b336000818152606a602090815260408083208984528252808320805460ff19166001179055928252606b815282822088835290522054156112b95760208101516001600160a01b031661128557336000818152606b6020908152604080832089845290915280822054905181156108fc0292818181858888f1935050505015801561127f573d6000803e3d6000fd5b506112b9565b336000818152606b60209081526040808320898452825290912054908301516112b9926001600160a01b0390911691611333565b336000818152606b602090815260408083208984529091529081902054905187917fff29b281372993483c1ce6b621ae07832d519c2294e43340f051312701ad132a916109a491906127f0565b6000828211156113285760405162461bcd60e51b81526004016103b8906122b6565b508082035b92915050565b6113898363a9059cbb60e01b84846040516024016113529291906120b1565b60408051601f198184030181529190526020810180516001600160e01b03166001600160e01b0319909316929092179091526119cc565b505050565b3390565b60005b8151811015611389576066600084815260200190815260200160002060008383815181106113bf57fe5b6020908102919091018101516001600160a01b03168252810191909152604001600020805460ff19169055600101611395565b611413846323b872dd60e01b8585856040516024016113529392919061208d565b50505050565b8015806114a15750604051636eb1769f60e11b81526001600160a01b0384169063dd62ed3e9061144f9030908690600401612073565b60206040518083038186803b15801561146757600080fd5b505afa15801561147b573d6000803e3d6000fd5b505050506040513d601f19601f8201168201806040525081019061149f9190611f52565b155b6114bd5760405162461bcd60e51b81526004016103b8906126ae565b6113898363095ea7b360e01b84846040516024016113529291906120b1565b6000908152606560205260409020805460ff19166001179055565b60005b815181101561138957600083815260666020526040812083516001929085908590811061152357fe5b6020908102919091018101516001600160a01b03168252810191909152604001600020805460ff19169115159190911790556001016114fa565b611565611cde565b846001600160a01b0316866001600160a01b031614156115975760405162461bcd60e51b81526004016103b89061212e565b836115b45760405162461bcd60e51b81526004016103b890612403565b826115d15760405162461bcd60e51b81526004016103b8906123cc565b6115d9611cde565b6001600160a01b0397881681529587166020870190815294871660408701908152606087019485526080870193845260a08701928352600060c0880181815260e08901828152606780546001810182559352895160089093027f9787eeb91fe3101235e4a76063c7023ecb40f923f97916639c598592fa30d6ae81018054948d166001600160a01b031995861617905598517f9787eeb91fe3101235e4a76063c7023ecb40f923f97916639c598592fa30d6af8a018054918d1691851691909117905592517f9787eeb91fe3101235e4a76063c7023ecb40f923f97916639c598592fa30d6b08901805491909b1692169190911790985593517f9787eeb91fe3101235e4a76063c7023ecb40f923f97916639c598592fa30d6b18601555090517f9787eeb91fe3101235e4a76063c7023ecb40f923f97916639c598592fa30d6b2840155517f9787eeb91fe3101235e4a76063c7023ecb40f923f97916639c598592fa30d6b383015592517f9787eeb91fe3101235e4a76063c7023ecb40f923f97916639c598592fa30d6b482015591517f9787eeb91fe3101235e4a76063c7023ecb40f923f97916639c598592fa30d6b59092019190915590565b61179d611d3e565b428410156117bd5760405162461bcd60e51b81526004016103b890612227565b838310156117dd5760405162461bcd60e51b81526004016103b890612733565b8115806117ea5750828210155b6118065760405162461bcd60e51b81526004016103b890612465565b61180e611d3e565b9384525060208084019283526040808501928352600095865260689091529093208251815590516001820155915160029092019190915590565b600054610100900460ff16806118615750611861611a5b565b8061186f575060005460ff16155b61188b5760405162461bcd60e51b81526004016103b89061248f565b600054610100900460ff161580156118b6576000805460ff1961ff0019909116610100171660011790555b6118be611a6c565b6118c6611aed565b80156118d8576000805461ff00191690555b50565b60008181526065602052604090205460ff165b919050565b60009182526066602090815260408084206001600160a01b0393909316845291905290205460ff1690565b60008261192d5750600061132d565b8282028284828161193a57fe5b04146119585760405162461bcd60e51b81526004016103b890612531565b9392505050565b60008082116119805760405162461bcd60e51b81526004016103b890612395565b81838161198957fe5b049392505050565b6000828201838110156119585760405162461bcd60e51b81526004016103b8906121f0565b6000908152606860205260409020600201541590565b6060611a21826040518060400160405280602081526020017f5361666545524332303a206c6f772d6c6576656c2063616c6c206661696c6564815250856001600160a01b0316611bc79092919063ffffffff16565b8051909150156113895780806020019051810190611a3f9190611e43565b6113895760405162461bcd60e51b81526004016103b890612664565b6000611a6630611bde565b15905090565b600054610100900460ff1680611a855750611a85611a5b565b80611a93575060005460ff16155b611aaf5760405162461bcd60e51b81526004016103b89061248f565b600054610100900460ff161580156118c6576000805460ff1961ff00199091166101001716600117905580156118d8576000805461ff001916905550565b600054610100900460ff1680611b065750611b06611a5b565b80611b14575060005460ff16155b611b305760405162461bcd60e51b81526004016103b89061248f565b600054610100900460ff16158015611b5b576000805460ff1961ff0019909116610100171660011790555b6000611b6561138e565b603380546001600160a01b0319166001600160a01b038316908117909155604051919250906000907f8be0079c531659141344cd1fd0a4f28419497f9722a3daafe3b4186f6b6457e0908290a35080156118d8576000805461ff001916905550565b6060611bd68484600085611be4565b949350505050565b3b151590565b606082471015611c065760405162461bcd60e51b81526004016103b890612324565b611c0f85611bde565b611c2b5760405162461bcd60e51b81526004016103b89061262d565b60006060866001600160a01b03168587604051611c489190611ffc565b60006040518083038185875af1925050503d8060008114611c85576040519150601f19603f3d011682016040523d82523d6000602084013e611c8a565b606091505b5091509150611c9a828286611ca5565b979650505050505050565b60608315611cb4575081611958565b825115611cc45782518084602001fd5b8160405162461bcd60e51b81526004016103b891906120d5565b60405180610100016040528060006001600160a01b0316815260200160006001600160a01b0316815260200160006001600160a01b0316815260200160008152602001600081526020016000815260200160008152602001600081525090565b60405180606001604052806000815260200160008152602001600081525090565b80356118ee8161286d565b600082601f830112611d7a578081fd5b813567ffffffffffffffff811115611d8e57fe5b6020808202611d9e82820161281d565b83815293508184018583018287018401881015611dba57600080fd5b600092505b84831015611de6578035611dd28161286d565b825260019290920191908301908301611dbf565b505050505092915050565b80356118ee81612882565b600060208284031215611e0d578081fd5b81356119588161286d565b60008060408385031215611e2a578081fd5b8235611e358161286d565b946020939093013593505050565b600060208284031215611e54578081fd5b815161195881612882565b600080828403610160811215611e73578283fd5b61014080821215611e82578384fd5b611e8b8161281d565b9150611e9685611d5f565b8252611ea460208601611d5f565b6020830152611eb560408601611d5f565b6040830152606085013560608301526080850135608083015260a085013560a083015260c085013560c083015260e085013560e0830152610100808601358184015250610120611f06818701611df1565b9083015290925083013567ffffffffffffffff811115611f24578182fd5b611f3085828601611d6a565b9150509250929050565b600060208284031215611f4b578081fd5b5035919050565b600060208284031215611f63578081fd5b5051919050565b60008060408385031215611f7c578182fd5b823591506020830135611f8e8161286d565b809150509250929050565b60008060408385031215611fab578182fd5b82359150602083013567ffffffffffffffff811115611f24578182fd5b60008060408385031215611fda578182fd5b50508035926020909101359150565b6001600160a01b03169052565b15159052565b6000825161200e818460208701612841565b9190910192915050565b6001600160a01b0391909116815260200190565b6001600160a01b03988916815296881660208801529490961660408601526060850192909252608084015260a083015260c082019290925260e08101919091526101000190565b6001600160a01b0392831681529116602082015260400190565b6001600160a01b039384168152919092166020820152604081019190915260600190565b6001600160a01b03929092168252602082015260400190565b901515815260200190565b60006020825282518060208401526120f4816040850160208701612841565b601f01601f19169190910160400192915050565b6020808252600c908201526b1413d3d30810d3105253515160a21b604082015260600190565b60208082526025908201527f544f4b454e3020414e4420544f4b454e312053484f554c442042452044494646604082015264115491539560da1b606082015260800190565b60208082526026908201527f4f776e61626c653a206e6577206f776e657220697320746865207a65726f206160408201526564647265737360d01b606082015260800190565b60208082526018908201527f494e53554646494349454e54205357415020414d4f554e540000000000000000604082015260600190565b6020808252601b908201527f536166654d6174683a206164646974696f6e206f766572666c6f770000000000604082015260600190565b6020808252600f908201526e125395905312510813d4115397d055608a1b604082015260600190565b6020808252601590820152741413d3d30814d213d553110810914810d313d4d151605a1b604082015260600190565b60208082526018908201527f4d53472e56414c55452053484f554c44204245205a45524f0000000000000000604082015260600190565b6020808252601e908201527f536166654d6174683a207375627472616374696f6e206f766572666c6f770000604082015260600190565b6020808252601b908201527f414444524553532053484f554c4420494e2057484954454c4953540000000000604082015260600190565b60208082526026908201527f416464726573733a20696e73756666696369656e742062616c616e636520666f6040820152651c8818d85b1b60d21b606082015260800190565b6020808252601190820152704e4f542044454c4159454420434c41494d60781b604082015260600190565b6020808252601a908201527f536166654d6174683a206469766973696f6e206279207a65726f000000000000604082015260600190565b6020808252601e908201527f494e56414c494420544f54414c20414d4f554e54204f4620544f4b454e310000604082015260600190565b6020808252601e908201527f494e56414c494420544f54414c20414d4f554e54204f4620544f4b454e300000604082015260600190565b602080825260119082015270494e56414c4944204d53472e56414c554560781b604082015260600190565b60208082526010908201526f125395905312510810d310525357d05560821b604082015260600190565b6020808252602e908201527f496e697469616c697a61626c653a20636f6e747261637420697320616c72656160408201526d191e481a5b9a5d1a585b1a5e995960921b606082015260800190565b60208082526014908201527314d5d05408105353d5539508115610d15151115160621b604082015260600190565b6020808252600c908201526b43414e4e4f5420434c41494d60a01b604082015260600190565b60208082526021908201527f536166654d6174683a206d756c7469706c69636174696f6e206f766572666c6f6040820152607760f81b606082015260800190565b6020808252818101527f4f776e61626c653a2063616c6c6572206973206e6f7420746865206f776e6572604082015260600190565b6020808252818101527f444f4e275420535550504f5254204445464c4154494f4e41525920544f4b454e604082015260600190565b6020808252600c908201526b1554d1548810d3105253515160a21b604082015260600190565b6020808252601190820152701413d3d30814d213d553110811561254d5607a1b604082015260600190565b6020808252601d908201527f416464726573733a2063616c6c20746f206e6f6e2d636f6e7472616374000000604082015260600190565b6020808252602a908201527f5361666545524332303a204552433230206f7065726174696f6e20646964206e6040820152691bdd081cdd58d8d9595960b21b606082015260800190565b60208082526036908201527f5361666545524332303a20617070726f76652066726f6d206e6f6e2d7a65726f60408201527520746f206e6f6e2d7a65726f20616c6c6f77616e636560501b606082015260800190565b6020808252601590820152741413d3d30814d213d553110810914813d411539151605a1b604082015260600190565b60208082526010908201526f125395905312510810d313d4d157d05560821b604082015260600190565b600061014082019050612771828451611fe9565b60208301516127836020840182611fe9565b5060408301516127966040840182611fe9565b50606083015160608301526080830151608083015260a083015160a083015260c083015160c083015260e083015160e0830152610100808401518184015250610120808401516127e882850182611ff6565b505092915050565b90815260200190565b918252602082015260400190565b9283526020830191909152604082015260600190565b60405181810167ffffffffffffffff8111828210171561283957fe5b604052919050565b60005b8381101561285c578181015183820152602001612844565b838111156114135750506000910152565b6001600160a01b03811681146118d857600080fd5b80151581146118d857600080fdfea264697066735822122090dce000fd04d844563974e3de04a23b8101ce2c008cf4ce0a683475fdeccd0264736f6c63430007030033",
  "linkReferences": {},
  "deployedLinkReferences": {}
}